:020000040000FA
:1000000000060020D90A0000A1010000A3010000A1
:10001000A7010000AB010000AF01000000000000DC
:10002000000000000000000000000000B30100001C
:10003000B501000000000000B7010000B901000098
:10004000BB010000D3010000EB010000030200002F
:100050001B020000330200004B020000630200009C
:100060007B02000093020000AB020000770A000050
:10007000810A00008B0A0000C3020000DB020000BE
:10008000F30200000B030000EF0A0000230300004E
:100090003B030000530300006B03000083030000D8
:1000A0009B030000B3030000CB030000E303000048
:1000B000EF0A0000EF0A00002B04000043040000D8
:1000C0005B0400007704000093040000AF0400000C
:1000D000CB040000E7040000030500001F0500003A
:1000E0003B0500005705000000F002F800F042F860
:1000F0000AA090E8000C82448344AAF10107DA4583
:1001000001D100F037F8AFF2090EBAE80F0013F092
:10011000010F18BFFB1A43F00103184750100000ED
:1001200070100000103A24BF78C878C1FAD852077E
:1001300024BF30C830C144BF04680C607047000061
:100140000023002400250026103A28BF78C1FBD8E0
:10015000520728BF30C148BF0B607047642900F0C8
:10016000CD86782900F00687002070471FB51FBD97
:1001700010B510BD00F0B6FF1146FFF7F7FF00F015
:1001800008F800F0D4FF03B4FFF7F2FF03BC00F05F
:10019000EBFB4FF4E13000F0F5FB00BFFEE70000A1
:1001A000704700BFFEE700BFFEE700BFFEE700BFED
:1001B000FEE7704770477047704710B5E948006820
:1001C00018B9E9A000F05AFE02E0E6490868804745
:1001D00010BD10B5E348406818B9E9A000F04EFE24
:1001E00002E0E0494868804710BD10B5DD488068EE
:1001F00018B9E9A000F042FE02E0DA4988688047B9
:1002000010BD10B5D748C06818B9E9A000F036FE97
:1002100002E0D449C868804710BD10B5D1480069D4
:1002200018B9E9A000F02AFE02E0CE49086980472B
:1002300010BD10B5CB48406918B9EAA000F01EFE09
:1002400002E0C8494869804710BD10B5C5488069BB
:1002500018B9EBA000F012FE02E0C249886980479D
:1002600010BD10B5BF48C06918B9EBA000F006FE7C
:1002700002E0BC49C869804710BD10B5B948006AA2
:1002800018B9EBA000F0FAFD02E0B649086A804711
:1002900010BD10B5B348406A18B9EBA000F0EEFDF0
:1002A00002E0B049486A804710BD10B5AD48806A89
:1002B00018B9EBA000F0E2FD02E0AA49886A804785
:1002C00010BD10B5A748806B18B9EBA000F0D6FDA3
:1002D00002E0A449886B804710BD10B5A148C06BEF
:1002E00018B9EBA000F0CAFD02E09E49C86B804738
:1002F00010BD10B59B48006C18B9EBA000F0BEFD16
:1003000002E09849086C804710BD10B59548406CD4
:1003100018B9EBA000F0B2FD02E09249486C8047AA
:1003200010BD10B58F48C06C18B9EBA000F0A6FD49
:1003300002E08C49C86C804710BD10B58948006D3B
:1003400018B9EBA000F09AFD02E08649086D8047DD
:1003500010BD10B58348406D18B9ECA000F08EFDBB
:1003600002E08049486D804710BD10B57D48806D22
:1003700018B9ECA000F082FD02E07A49886D804750
:1003800010BD10B57748C06D18B9ECA000F076FD2F
:1003900002E07449C86D804710BD10B57148006E09
:1003A00018B9ECA000F06AFD02E06E49086E8047C3
:1003B00010BD10B56B48406E18B9ECA000F05EFDA2
:1003C00002E06849486E804710BD10B56548406935
:1003D00018B9EDA000F052FD02E06249886E804736
:1003E00010BD10B55F48C06E18B9EEA000F046FD14
:1003F00002E05C49C86E804710BD10B55948006FD7
:1004000018B9EEA000F03AFD02E05649086F8047A7
:1004100010BD10B55348406F18B9EEA000F02EFD86
:1004200002E05049486F804710BD10B54D48806FBD
:1004300018B9EFA000F022FD02E04A49886F80471A
:1004400010BD10B54748C06F18B9F0A000F016FDF8
:1004500002E04449C86F804710BD10B54148D0F84C
:10046000800018B9F0A000F009FD03E03D49D1F883
:100470008000804710BD10B53A48D0F8840018B904
:10048000F0A000F0FBFC03E03649D1F8840080477F
:1004900010BD10B53348D0F8880018B9F0A000F0AE
:1004A000EDFC03E02F49D1F88800804710BD10B55E
:1004B0002C48D0F88C0018B9F0A000F0DFFC03E065
:1004C0002849D1F88C00804710BD10B52548D0F8D8
:1004D000900018B9F0A000F0D1FC03E02149D1F858
:1004E0009000804710BD10B51E48D0F8940018B990
:1004F000F0A000F0C3FC03E01A49D1F89400804753
:1005000010BD10B51748D0F8980018B9F0A000F049
:10051000B5FC03E01349D1F89800804710BD10B531
:100520001048D0F89C0018B9F1A000F0A7FC03E037
:100530000C49D1F89C00804710BD10B50948D0F88F
:10054000A00018B9F2A000F099FC03E00549D1F829
:10055000A000804710BD10B50248D0F8A40000B933
:10056000E6E1E9E1080000206572726F723A777780
:10057000646720697271206973206E756C6C00006D
:100580006572726F723A646D61206972712069736D
:10059000206E756C6C0000006572726F723A757334
:1005A0006220697271206973206E756C6C000000A6
:1005B0006572726F723A6566632069727120697341
:1005C000206E756C6C0000006572726F723A737009
:1005D00069315F6D20697271206973206E756C6C72
:1005E000000000006572726F723A737069325F6D5D
:1005F00020697271206973206E756C6C00000000B8
:100600006572726F723A74696D3120697271206916
:1006100073206E756C6C00006572726F723A65784B
:1006200074693120697271206973206E756C6C0079
:100630006572726F723A65787469322069727120DE
:100640006973206E756C6C006572726F723A6578B2
:1006500074693320697271206973206E756C6C0047
:100660006572726F723A65787469342069727120AC
:100670006973206E756C6C006572726F723A6932C4
:10068000633120697271206973206E756C6C000093
:100690006572726F723A69326332206972712069D1
:1006A00073206E756C6C00006572726F723A7469BB
:1006B0006D3220697271206973206E756C6C000058
:1006C0006572726F723A74696D3320697271206954
:1006D00073206E756C6C00006572726F723A727482
:1006E0006320697271206973206E756C6C00000064
:1006F0006572726F723A63616E315F736365206910
:100700007271206973206E756C6C00006572726F77
:10071000723A6164633120697271206973206E7569
:100720006C6C00006572726F723A616463322069AA
:100730007271206973206E756C6C00006572726F47
:10074000723A6461633120697271206973206E7539
:100750006C6C00006572726F723A6461633220697A
:100760007271206973206E756C6C00006572726F17
:10077000723A737069315F732069727120697320F6
:100780006E756C6C000000006572726F723A737067
:1007900069325F7320697271206973206E756C6CA9
:1007A000000000006572726F723A657874693520D6
:1007B000697271206973206E756C6C006572726F5E
:1007C000723A70766420697271206973206E756C5C
:1007D0006C0000006572726F723A74616D706572C0
:1007E00020697271206973206E756C6C00000000C6
:1007F0006572726F723A74696D315F7564206972E7
:1008000071206973206E756C6C0D0A006572726FD1
:10081000723A74696D315F63633120697271206966
:1008200073206E756C6C00006572726F723A746939
:100830006D315F63633220697271206973206E7558
:100840006C6C00006572726F723A74696D315F632F
:10085000633320697271206973206E756C6C0000BF
:100860006572726F723A74696D315F6363342069C7
:100870007271206973206E756C6C00006572726F06
:10088000723A74696D315F636F6D206972712069AE
:1008900073206E756C6C00006572726F723A7469C9
:1008A0006D315F74726720697271206973206E7593
:1008B0006C6C00006572726F723A74696D315F62C0
:1008C0006B20697271206973206E756C6C0000007A
:1008D0006572726F723A74696D315F6363316F660E
:1008E00020697271206973206E756C6C00000000C5
:1008F0006572726F723A74696D315F6363326F66ED
:1009000020697271206973206E756C6C00000000A4
:100910006572726F723A74696D315F6363336F66CB
:1009200020697271206973206E756C6C0000000084
:1009300004A000F0A3FA03E00A49D1F8A40080471C
:1009400010BD00006572726F723A74696D315F6339
:1009500063346F6620697271206973206E756C6CE8
:10096000000000000800002000BF704700BF4E4A92
:10097000128802F04002002AF9D0C2B24A4B1B1D75
:100980001A8070471FB5044600940020ADF804009B
:10099000ADF80600ADF80800ADF80C000C20ADF87D
:1009A0000A006946404800F0B4F801213E4800F0D2
:1009B00036F921463DA000F061FA1FBD70B505462D
:1009C00040F22551284600F01BFA002852D0282179
:1009D000284600F015FAA0B1284600F091F9C4B2FB
:1009E0000F2C03DB2146284600F086F904F07F0037
:1009F0000F280EDC3148008840F400402F49088061
:100A000007E0284600F07CF9C4B221462CA000F093
:100A100035FA2A48008800F4004058BB274800886F
:100A200000F4804060B10A2C03D0002023490880E4
:100A300020E02248008840F400402049088019E066
:100A40000D2C06D11D48008840F480401B490880C9
:100A500010E01A480088C0F30D001B490C541748D9
:100A60000088401C1549088008460088C72801DD19
:100A70000020088070BD10B50B48FFF79FFF10BD28
:100A800010B51248FFF79AFF10BD10B51048FFF7D8
:100A900095FF10BD10B50F48FFF790FF10BD10B5C2
:100AA0000C48FFF78BFF10BD0018014055617274B0
:100AB00020496E6974A3BA25640D0A000400002061
:100AC000307825780D0A0000B0000020008C01402D
:100AD0000090014000C4014008480047FEE7FEE7DF
:100AE000FEE7FEE7FEE7FEE7FEE7FEE7FEE7FEE7DE
:100AF00003480449044A054B70470000E900000020
:100B0000D8010020D8050020D8030020D8030020F9
:100B10007047F0B502460020D64E00BF00250023E6
:100B20008F8907B100BF1346108A4CF6FF77384013
:100B3000CF883843108290894EF6F31738408F885B
:100B4000B1F808C047EA0C07B1F80AC047EA0C0739
:100B500038439081908A4FF6FF4738408F89384359
:100B60009082978907F4004757B106EBC60707EB59
:100B70000617D1F800C04FEA4C0CB7FBFCF409E0B3
:100B800006EBC60707EB0617D1F800C04FEA8C0C3E
:100B9000B7FBFCF46427B4FBF7F7380107094FF003
:100BA000640C0CFB1745978907F4004747B13227BF
:100BB00007EBC507B7FBFCF707F00707384309E069
:100BC000322707EB05174FF0640CB7FBFCF707F073
:100BD0000F0738431081F0BD4FF41651016000211A
:100BE0008180C18001810C21418100218181704778
:100BF00010B502460020108A4FF2FF0318400B8800
:100C00004C8823438C882343CC8823431843108289
:100C100010BD0021018041808180C180704721B1D9
:100C2000828942F40052828104E082894DF6FF738A
:100C30001A4082817047F0B5034600240026002543
:100C4000002040F66A17B94200D100BF1846C1F330
:100C5000421401F01F06012707FA06F5012C01D105
:100C60000C3004E0022C01D1103000E014301AB135
:100C700007682F43076002E00768AF430760F0BDD5
:100C80001AB1838A0B43838202E0838A8B43838277
:100C90007047028A4FF6F0731A400282028A0A43B2
:100CA0000282704782894FF2FF731A4082818289E3
:100CB0000A438281704721B1828942F00202828117
:100CC00004E082894FF6FD731A4082817047028AE0
:100CD0004FF6DF731A400282028A0A43028270478B
:100CE00021B1028A42F48042028204E0028A4BF679
:100CF000FF731A4002827047C1F308028280704776
:100D000001468888C0F308007047818941F00101DD
:100D100081817047028BD2B20283028B42EA0122A8
:100D200002837047028B02F47F420283028B0A43E4
:100D30000283704721B1828A42F02002828204E05D
:100D4000828A4FF6DF731A408282704721B1828A0D
:100D500042F01002828204E0828A4FF6EF731A405A
:100D60008282704721B1828A42F00802828204E0C6
:100D7000828A4FF6F7731A408282704721B18289C6
:100D800042F40042828103E08289C2F30E02828132
:100D9000704721B1828A42F40062828204E0828A32
:100DA0004FF2FF731A4082827047828A4FF6FB73BC
:100DB0001A408282828A0A438282704721B1828AE3
:100DC00042F00202828204E0828A4FF6FD731A40EA
:100DD0008282704702460020B1F5007F00D100BF3B
:100DE00013880B400BB1012000E00020704701F494
:100DF0000072B2F5007F00D100BFCA430280704785
:100E000070B50246002400230025002040F66A1633
:100E1000B14200D100BFC1F3421501F01F0301260A
:100E200006FA03F3012D02D19689334006E0022D24
:100E300002D1168A334001E0968A33400C12012613
:100E400006FA04F41688344013B10CB1012000E016
:100E5000002070BD10B50022002340F66A14A142A4
:100E600000D100BF0A1201249440A3B2DC430480E5
:100E700010BD000000512502704700000FB4044966
:100E800010B503AA029800F0FFF810BC5DF814FB3F
:100E9000000000202DE9F0410E46044600202062AB
:100EA0002046E168884730B3252805D0D4E90121E0
:100EB0009047206A401CF2E7E168204600278847F7
:100EC000050018D0A5F14100192802D820354FF4AB
:100ED00000673246294620462760FFF73FF940B1B8
:100EE000012804D0F61D26F007060836D8E7361D7F
:100EF000D6E72846DAE7206ABDE8F0812DE9F0411F
:100F00000646002410687529314616A510D0AFF3A7
:100F10000080002802DA404213A507E031688A0702
:100F200001D512A502E0490704D511A5012401E06D
:100F3000AFF3008000210A2206F1240709E0B0FB8C
:100F4000F2FCB0FBF2F302FB1C0030307854184680
:100F5000491C0028F3D123462A463046BDE8F0411B
:100F600000F038B8000000002D0000002B00000049
:100F70002000000070B504460D4621461068AFF30E
:100F800000802188090502D50F4A7A4402E00E4A02
:100F90007A440E32002104F1240305E000F00F062C
:100FA0000009965D5E54491C0028F7D12078002383
:100FB000000704D5702D02D009B10223113220465A
:100FC000BDE8704000F006B8B601000070477047F9
:100FD000704770472DE9F0470D4699469246044602
:100FE00000F124080168880604D5E06921F01001A9
:100FF000216000E00120A84201DD471B00E000273E
:10100000A1697A1902EB0900081AA0612078C006CC
:1010100002D42046AFF30080002608E0D4E9012185
:101020001AF806009047206A401C761C20624E4544
:10103000F4DB2078C0060AD52046AFF3008006E036
:10104000D4E9012130209047206A401C2062381EDC
:10105000A7F10107F4DC07E0D4E9012118F8050045
:101060009047206A401C2062281EA5F10105F3DC90
:101070002046AFF300802078000602D50220BDE8AC
:10108000F0870120FBE70000074B70B50D467B445D
:1010900000F011F80446284600F020F810B14FF097
:1010A000FF3070BD204670BDDBF8FFFF01694A1CB0
:1010B00002610878704700B58FB0CDE90131002199
:1010C000059105497944CDE9031011466846FFF7BB
:1010D000E1FE0FB000BD0000E5FFFFFF007B00F068
:1010E00080007047754600F029F8AE460500694655
:1010F000534620F00700854618B020B5FFF7F8FCEE
:10110000BDE820404FF000064FF000074FF0000808
:101110004FF0000B21F00701AC46ACE8C009ACE889
:10112000C009ACE8C009ACE8C0098D467047044668
:10113000AFF300802046FFF726F800000048704714
:101140007801002030313233343536373839414276
:101150004344454640305800303132333435363719
:101160003839616263646566403078008C11000034
:10117000000000200800000024010000941100007D
:1011800008000020D0050000400100000000000021
:04119000000000005B
:04000005000000E90E
:00000001FF
